{
  "contractName": "UniswapFactory",
  "abi": [
    {
      "constant": true,
      "inputs": [],
      "name": "exchangeTemplate",
      "outputs": [
        {
          "name": "",
          "type": "address"
        }
      ],
      "payable": false,
      "stateMutability": "view",
      "type": "function"
    },
    {
      "constant": true,
      "inputs": [],
      "name": "tokenCount",
      "outputs": [
        {
          "name": "",
          "type": "uint256"
        }
      ],
      "payable": false,
      "stateMutability": "view",
      "type": "function"
    },
    {
      "anonymous": false,
      "inputs": [
        {
          "indexed": true,
          "name": "token",
          "type": "address"
        },
        {
          "indexed": true,
          "name": "exchange",
          "type": "address"
        }
      ],
      "name": "NewExchange",
      "type": "event"
    },
    {
      "constant": false,
      "inputs": [
        {
          "name": "template",
          "type": "address"
        }
      ],
      "name": "initializeFactory",
      "outputs": [],
      "payable": false,
      "stateMutability": "nonpayable",
      "type": "function"
    },
    {
      "constant": false,
      "inputs": [
        {
          "name": "_name",
          "type": "string"
        },
        {
          "name": "_symbol",
          "type": "string"
        },
        {
          "name": "_decimals",
          "type": "uint8"
        },
        {
          "name": "token",
          "type": "address"
        }
      ],
      "name": "createExchange",
      "outputs": [
        {
          "name": "",
          "type": "address"
        }
      ],
      "payable": false,
      "stateMutability": "nonpayable",
      "type": "function"
    },
    {
      "constant": true,
      "inputs": [
        {
          "name": "token",
          "type": "address"
        }
      ],
      "name": "getExchange",
      "outputs": [
        {
          "name": "",
          "type": "address"
        }
      ],
      "payable": false,
      "stateMutability": "view",
      "type": "function"
    },
    {
      "constant": true,
      "inputs": [
        {
          "name": "exchange",
          "type": "address"
        }
      ],
      "name": "getToken",
      "outputs": [
        {
          "name": "",
          "type": "address"
        }
      ],
      "payable": false,
      "stateMutability": "view",
      "type": "function"
    },
    {
      "constant": true,
      "inputs": [
        {
          "name": "token_id",
          "type": "uint256"
        }
      ],
      "name": "getTokenWithId",
      "outputs": [
        {
          "name": "",
          "type": "address"
        }
      ],
      "payable": false,
      "stateMutability": "view",
      "type": "function"
    }
  ],
  "bytecode": "0x608060405234801561001057600080fd5b50d3801561001d57600080fd5b50d2801561002a57600080fd5b50615cd08061003a6000396000f3fe608060405234801561001057600080fd5b50d3801561001d57600080fd5b50d2801561002a57600080fd5b50600436106100b4576000357c010000000000000000000000000000000000000000000000000000000090048063538a3f0e11610092578063538a3f0e14610346578063597704381461038a5780639f181b5e1461040e578063aa65a6c01461042c576100b4565b806306f2bf62146100b95780631c2bbd181461013d5780632159514214610187575b600080fd5b6100fb600480360360208110156100cf57600080fd5b81019080803573ffffffffffffffffffffffffffffffffffffffff16906020019092919050505061049a565b604051808273ffffffffffffffffffffffffffffffffffffffff1673ffffffffffffffffffffffffffffffffffffffff16815260200191505060405180910390f35b610145610503565b604051808273ffffffffffffffffffffffffffffffffffffffff1673ffffffffffffffffffffffffffffffffffffffff16815260200191505060405180910390f35b6103046004803603608081101561019d57600080fd5b81019080803590602001906401000000008111156101ba57600080fd5b8201836020820111156101cc57600080fd5b803590602001918460018302840111640100000000831117156101ee57600080fd5b91908080601f016020809104026020016040519081016040528093929190818152602001838380828437600081840152601f19601f8201169050808301925050505050505091929192908035906020019064010000000081111561025157600080fd5b82018360208201111561026357600080fd5b8035906020019184600183028401116401000000008311171561028557600080fd5b91908080601f016020809104026020016040519081016040528093929190818152602001838380828437600081840152601f19601f820116905080830192505050505050509192919290803560ff169060200190929190803573ffffffffffffffffffffffffffffffffffffffff169060200190929190505050610528565b604051808273ffffffffffffffffffffffffffffffffffffffff1673ffffffffffffffffffffffffffffffffffffffff16815260200191505060405180910390f35b6103886004803603602081101561035c57600080fd5b81019080803573ffffffffffffffffffffffffffffffffffffffff1690602001909291905050506109e3565b005b6103cc600480360360208110156103a057600080fd5b81019080803573ffffffffffffffffffffffffffffffffffffffff169060200190929190505050610aba565b604051808273ffffffffffffffffffffffffffffffffffffffff1673ffffffffffffffffffffffffffffffffffffffff16815260200191505060405180910390f35b610416610b23565b6040518082815260200191505060405180910390f35b6104586004803603602081101561044257600080fd5b8101908080359060200190929190505050610b29565b604051808273ffffffffffffffffffffffffffffffffffffffff1673ffffffffffffffffffffffffffffffffffffffff16815260200191505060405180910390f35b6000600260008373ffffffffffffffffffffffffffffffffffffffff1673ffffffffffffffffffffffffffffffffffffffff16815260200190815260200160002060009054906101000a900473ffffffffffffffffffffffffffffffffffffffff169050919050565b6000809054906101000a900473ffffffffffffffffffffffffffffffffffffffff1681565b60008073ffffffffffffffffffffffffffffffffffffffff168273ffffffffffffffffffffffffffffffffffffffff16141561056357600080fd5b600073ffffffffffffffffffffffffffffffffffffffff166000809054906101000a900473ffffffffffffffffffffffffffffffffffffffff1673ffffffffffffffffffffffffffffffffffffffff1614156105be57600080fd5b600073ffffffffffffffffffffffffffffffffffffffff16600260008473ffffffffffffffffffffffffffffffffffffffff1673ffffffffffffffffffffffffffffffffffffffff16815260200190815260200160002060009054906101000a900473ffffffffffffffffffffffffffffffffffffffff1673ffffffffffffffffffffffffffffffffffffffff161461065657600080fd5b600060405161066490610b66565b604051809103906000f080158015610680573d6000803e3d6000fd5b5090508073ffffffffffffffffffffffffffffffffffffffff1663cd198bc1878787876040518563ffffffff167c01000000000000000000000000000000000000000000000000000000000281526004018080602001806020018560ff1660ff1681526020018473ffffffffffffffffffffffffffffffffffffffff1673ffffffffffffffffffffffffffffffffffffffff168152602001838103835287818151815260200191508051906020019080838360005b83811015610750578082015181840152602081019050610735565b50505050905090810190601f16801561077d5780820380516001836020036101000a031916815260200191505b50838103825286818151815260200191508051906020019080838360005b838110156107b657808201518184015260208101905061079b565b50505050905090810190601f1680156107e35780820380516001836020036101000a031916815260200191505b509650505050505050600060405180830381600087803b15801561080657600080fd5b505af115801561081a573d6000803e3d6000fd5b5050505080600260008573ffffffffffffffffffffffffffffffffffffffff1673ffffffffffffffffffffffffffffffffffffffff16815260200190815260200160002060006101000a81548173ffffffffffffffffffffffffffffffffffffffff021916908373ffffffffffffffffffffffffffffffffffffffff16021790555082600360008373ffffffffffffffffffffffffffffffffffffffff1673ffffffffffffffffffffffffffffffffffffffff16815260200190815260200160002060006101000a81548173ffffffffffffffffffffffffffffffffffffffff021916908373ffffffffffffffffffffffffffffffffffffffff16021790555060006001805401905080600181905550836004600083815260200190815260200160002060006101000a81548173ffffffffffffffffffffffffffffffffffffffff021916908373ffffffffffffffffffffffffffffffffffffffff1602179055508173ffffffffffffffffffffffffffffffffffffffff168473ffffffffffffffffffffffffffffffffffffffff167f9d42cb017eb05bd8944ab536a8b35bc68085931dd5f4356489801453923953f960405160405180910390a38192505050949350505050565b600073ffffffffffffffffffffffffffffffffffffffff166000809054906101000a900473ffffffffffffffffffffffffffffffffffffffff1673ffffffffffffffffffffffffffffffffffffffff1614610a3d57600080fd5b600073ffffffffffffffffffffffffffffffffffffffff168173ffffffffffffffffffffffffffffffffffffffff161415610a7757600080fd5b806000806101000a81548173ffffffffffffffffffffffffffffffffffffffff021916908373ffffffffffffffffffffffffffffffffffffffff16021790555050565b6000600360008373ffffffffffffffffffffffffffffffffffffffff1673ffffffffffffffffffffffffffffffffffffffff16815260200190815260200160002060009054906101000a900473ffffffffffffffffffffffffffffffffffffffff169050919050565b60015481565b60006004600083815260200190815260200160002060009054906101000a900473ffffffffffffffffffffffffffffffffffffffff169050919050565b61513180610b748339019056fe60806040523480156200001157600080fd5b50d380156200001f57600080fd5b50d280156200002d57600080fd5b506150f3806200003e6000396000f3fe60806040526004361061024d576000357c010000000000000000000000000000000000000000000000000000000090048063981a13271161014b578063bbb28348116100c8578063ea650c7d1161008c578063ea650c7d146115b4578063ec384a3e1461165b578063f396b84c14611722578063f88bf15a1461178b578063fd11c223146118195761024d565b8063bbb2834814611175578063cd0cbada146111c1578063cd198bc1146112a8578063dd62ed3e1461144e578063e0f846e8146114ed5761024d565b80639d76ea581161010f5780639d76ea5814610eda578063a457c2d714610f4b578063a7c6d9d914610fd8578063a9059cbb14611041578063b1cb43bf146110ce5761024d565b8063981a132714610c0657806398fc57b714610ccd578063999bb7ac14610d9457806399a1340914610e115780639aebb31f14610e8e5761024d565b806340c10f19116101d95780639378b0e81161019d5780639378b0e8146109ad57806395d89b4114610a16578063966dae0e14610ac057806396a3a16f14610b3157806397430b4e14610b9d5761024d565b806340c10f19146106ff578063422f10431461077457806370a08231146107ca5780637f8655d81461084957806389f2a871146109305761024d565b806318160ddd1161022057806318160ddd146104cf578063221fb6ab1461051457806323b872dd14610580578063313ce5671461062d57806339509351146106725761024d565b80630127f1421461025e57806306fdde03146102fb578063095ea7b3146103a557806314178dda14610432575b61025b346001423333611896565b50005b34801561026a57600080fd5b50d3801561027757600080fd5b50d2801561028457600080fd5b506102e56004803603608081101561029b57600080fd5b81019080803590602001909291908035906020019092919080359060200190929190803573ffffffffffffffffffffffffffffffffffffffff169060200190929190505050611b58565b6040518082815260200191505060405180910390f35b34801561030757600080fd5b50d3801561031457600080fd5b50d2801561032157600080fd5b5061032a611be3565b6040518080602001828103825283818151815260200191508051906020019080838360005b8381101561036a57808201518184015260208101905061034f565b50505050905090810190601f1680156103975780820380516001836020036101000a031916815260200191505b509250505060405180910390f35b3480156103b157600080fd5b50d380156103be57600080fd5b50d280156103cb57600080fd5b50610418600480360360408110156103e257600080fd5b81019080803573ffffffffffffffffffffffffffffffffffffffff16906020019092919080359060200190929190505050611c81565b604051808215151515815260200191505060405180910390f35b34801561043e57600080fd5b50d3801561044b57600080fd5b50d2801561045857600080fd5b506104b96004803603608081101561046f57600080fd5b81019080803590602001909291908035906020019092919080359060200190929190803573ffffffffffffffffffffffffffffffffffffffff169060200190929190505050611c98565b6040518082815260200191505060405180910390f35b3480156104db57600080fd5b50d380156104e857600080fd5b50d280156104f557600080fd5b506104fe611d23565b6040518082815260200191505060405180910390f35b61056a6004803603606081101561052a57600080fd5b810190808035906020019092919080359060200190929190803573ffffffffffffffffffffffffffffffffffffffff169060200190929190505050611d2d565b6040518082815260200191505060405180910390f35b34801561058c57600080fd5b50d3801561059957600080fd5b50d280156105a657600080fd5b50610613600480360360608110156105bd57600080fd5b81019080803573ffffffffffffffffffffffffffffffffffffffff169060200190929190803573ffffffffffffffffffffffffffffffffffffffff16906020019092919080359060200190929190505050611db7565b604051808215151515815260200191505060405180910390f35b34801561063957600080fd5b50d3801561064657600080fd5b50d2801561065357600080fd5b5061065c611dcf565b6040518082815260200191505060405180910390f35b34801561067e57600080fd5b50d3801561068b57600080fd5b50d2801561069857600080fd5b506106e5600480360360408110156106af57600080fd5b81019080803573ffffffffffffffffffffffffffffffffffffffff16906020019092919080359060200190929190505050611dd5565b604051808215151515815260200191505060405180910390f35b34801561070b57600080fd5b50d3801561071857600080fd5b50d2801561072557600080fd5b506107726004803603604081101561073c57600080fd5b81019080803573ffffffffffffffffffffffffffffffffffffffff16906020019092919080359060200190929190505050611e7a565b005b6107b46004803603606081101561078a57600080fd5b81019080803590602001909291908035906020019092919080359060200190929190505050611fcc565b6040518082815260200191505060405180910390f35b3480156107d657600080fd5b50d380156107e357600080fd5b50d280156107f057600080fd5b506108336004803603602081101561080757600080fd5b81019080803573ffffffffffffffffffffffffffffffffffffffff1690602001909291905050506126a1565b6040518082815260200191505060405180910390f35b34801561085557600080fd5b50d3801561086257600080fd5b50d2801561086f57600080fd5b5061091a600480360360e081101561088657600080fd5b8101908080359060200190929190803590602001909291908035906020019092919080359060200190929190803573ffffffffffffffffffffffffffffffffffffffff169060200190929190803573ffffffffffffffffffffffffffffffffffffffff169060200190929190803573ffffffffffffffffffffffffffffffffffffffff1690602001909291905050506126e9565b6040518082815260200191505060405180910390f35b34801561093c57600080fd5b50d3801561094957600080fd5b50d2801561095657600080fd5b506109976004803603606081101561096d57600080fd5b8101908080359060200190929190803590602001909291908035906020019092919050505061270c565b6040518082815260200191505060405180910390f35b3480156109b957600080fd5b50d380156109c657600080fd5b50d280156109d357600080fd5b50610a00600480360360208110156109ea57600080fd5b8101908080359060200190929190505050612800565b6040518082815260200191505060405180910390f35b348015610a2257600080fd5b50d38015610a2f57600080fd5b50d28015610a3c57600080fd5b50610a45612938565b6040518080602001828103825283818151815260200191508051906020019080838360005b83811015610a85578082015181840152602081019050610a6a565b50505050905090810190601f168015610ab25780820380516001836020036101000a031916815260200191505b509250505060405180910390f35b348015610acc57600080fd5b50d38015610ad957600080fd5b50d28015610ae657600080fd5b50610aef6129d6565b604051808273ffffffffffffffffffffffffffffffffffffffff1673ffffffffffffffffffffffffffffffffffffffff16815260200191505060405180910390f35b610b8760048036036060811015610b4757600080fd5b810190808035906020019092919080359060200190929190803573ffffffffffffffffffffffffffffffffffffffff169060200190929190505050612a00565b6040518082815260200191505060405180910390f35b348015610ba957600080fd5b50d38015610bb657600080fd5b50d28015610bc357600080fd5b50610bf060048036036020811015610bda57600080fd5b8101908080359060200190929190505050612a8a565b6040518082815260200191505060405180910390f35b348015610c1257600080fd5b50d38015610c1f57600080fd5b50d28015610c2c57600080fd5b50610cb7600480360360c0811015610c4357600080fd5b8101908080359060200190929190803590602001909291908035906020019092919080359060200190929190803573ffffffffffffffffffffffffffffffffffffffff169060200190929190803573ffffffffffffffffffffffffffffffffffffffff169060200190929190505050612bbc565b6040518082815260200191505060405180910390f35b348015610cd957600080fd5b50d38015610ce657600080fd5b50d28015610cf357600080fd5b50610d7e600480360360c0811015610d0a57600080fd5b8101908080359060200190929190803590602001909291908035906020019092919080359060200190929190803573ffffffffffffffffffffffffffffffffffffffff169060200190929190803573ffffffffffffffffffffffffffffffffffffffff169060200190929190505050612c12565b6040518082815260200191505060405180910390f35b348015610da057600080fd5b50d38015610dad57600080fd5b50d28015610dba57600080fd5b50610dfb60048036036060811015610dd157600080fd5b81019080803590602001909291908035906020019092919080359060200190929190505050612c34565b6040518082815260200191505060405180910390f35b348015610e1d57600080fd5b50d38015610e2a57600080fd5b50d28015610e3757600080fd5b50610e7860048036036060811015610e4e57600080fd5b81019080803590602001909291908035906020019092919080359060200190929190505050612c4c565b6040518082815260200191505060405180910390f35b610ec460048036036040811015610ea457600080fd5b810190808035906020019092919080359060200190929190505050612c64565b6040518082815260200191505060405180910390f35b348015610ee657600080fd5b50d38015610ef357600080fd5b50d28015610f0057600080fd5b50610f09612c7b565b604051808273ffffffffffffffffffffffffffffffffffffffff1673ffffffffffffffffffffffffffffffffffffffff16815260200191505060405180910390f35b348015610f5757600080fd5b50d38015610f6457600080fd5b50d28015610f7157600080fd5b50610fbe60048036036040811015610f8857600080fd5b81019080803573ffffffffffffffffffffffffffffffffffffffff16906020019092919080359060200190929190505050612ca5565b604051808215151515815260200191505060405180910390f35b348015610fe457600080fd5b50d38015610ff157600080fd5b50d28015610ffe57600080fd5b5061102b6004803603602081101561101557600080fd5b8101908080359060200190929190505050612d4a565b6040518082815260200191505060405180910390f35b34801561104d57600080fd5b50d3801561105a57600080fd5b50d2801561106757600080fd5b506110b46004803603604081101561107e57600080fd5b81019080803573ffffffffffffffffffffffffffffffffffffffff16906020019092919080359060200190929190505050612e82565b604051808215151515815260200191505060405180910390f35b3480156110da57600080fd5b50d380156110e757600080fd5b50d280156110f457600080fd5b5061115f600480360360a081101561110b57600080fd5b8101908080359060200190929190803590602001909291908035906020019092919080359060200190929190803573ffffffffffffffffffffffffffffffffffffffff169060200190929190505050612e99565b6040518082815260200191505060405180910390f35b6111ab6004803603604081101561118b57600080fd5b810190808035906020019092919080359060200190929190505050612eb5565b6040518082815260200191505060405180910390f35b3480156111cd57600080fd5b50d380156111da57600080fd5b50d280156111e757600080fd5b50611292600480360360e08110156111fe57600080fd5b8101908080359060200190929190803590602001909291908035906020019092919080359060200190929190803573ffffffffffffffffffffffffffffffffffffffff169060200190929190803573ffffffffffffffffffffffffffffffffffffffff169060200190929190803573ffffffffffffffffffffffffffffffffffffffff169060200190929190505050612ecc565b6040518082815260200191505060405180910390f35b3480156112b457600080fd5b50d380156112c157600080fd5b50d280156112ce57600080fd5b5061144c600480360360808110156112e557600080fd5b810190808035906020019064010000000081111561130257600080fd5b82018360208201111561131457600080fd5b8035906020019184600183028401116401000000008311171561133657600080fd5b91908080601f016020809104026020016040519081016040528093929190818152602001838380828437600081840152601f19601f8201169050808301925050505050505091929192908035906020019064010000000081111561139957600080fd5b8201836020820111156113ab57600080fd5b803590602001918460018302840111640100000000831117156113cd57600080fd5b91908080601f016020809104026020016040519081016040528093929190818152602001838380828437600081840152601f19601f820116905080830192505050505050509192919290803560ff169060200190929190803573ffffffffffffffffffffffffffffffffffffffff169060200190929190505050612eef565b005b34801561145a57600080fd5b50d3801561146757600080fd5b50d2801561147457600080fd5b506114d76004803603604081101561148b57600080fd5b81019080803573ffffffffffffffffffffffffffffffffffffffff169060200190929190803573ffffffffffffffffffffffffffffffffffffffff169060200190929190505050613106565b6040518082815260200191505060405180910390f35b3480156114f957600080fd5b50d3801561150657600080fd5b50d2801561151357600080fd5b5061159e600480360360c081101561152a57600080fd5b8101908080359060200190929190803590602001909291908035906020019092919080359060200190929190803573ffffffffffffffffffffffffffffffffffffffff169060200190929190803573ffffffffffffffffffffffffffffffffffffffff16906020019092919050505061318d565b6040518082815260200191505060405180910390f35b3480156115c057600080fd5b50d380156115cd57600080fd5b50d280156115da57600080fd5b50611645600480360360a08110156115f157600080fd5b8101908080359060200190929190803590602001909291908035906020019092919080359060200190929190803573ffffffffffffffffffffffffffffffffffffffff1690602001909291905050506131af565b6040518082815260200191505060405180910390f35b34801561166757600080fd5b50d3801561167457600080fd5b50d2801561168157600080fd5b5061170c600480360360c081101561169857600080fd5b8101908080359060200190929190803590602001909291908035906020019092919080359060200190929190803573ffffffffffffffffffffffffffffffffffffffff169060200190929190803573ffffffffffffffffffffffffffffffffffffffff1690602001909291905050506131cb565b6040518082815260200191505060405180910390f35b34801561172e57600080fd5b50d3801561173b57600080fd5b50d2801561174857600080fd5b506117756004803603602081101561175f57600080fd5b8101908080359060200190929190505050613221565b6040518082815260200191505060405180910390f35b34801561179757600080fd5b50d380156117a457600080fd5b50d280156117b157600080fd5b506117fc600480360360808110156117c857600080fd5b8101908080359060200190929190803590602001909291908035906020019092919080359060200190929190505050613353565b604051808381526020018281526020019250505060405180910390f35b34801561182557600080fd5b50d3801561183257600080fd5b50d2801561183f57600080fd5b506118806004803603606081101561185657600080fd5b810190808035906020019092919080359060200190929190803590602001909291905050506137ec565b6040518082815260200191505060405180910390f35b60004284101580156118a85750600086115b80156118b45750600085115b6118bd57600080fd5b6000600660009054906101000a900473ffffffffffffffffffffffffffffffffffffffff1673ffffffffffffffffffffffffffffffffffffffff166370a08231306040518263ffffffff167c0100000000000000000000000000000000000000000000000000000000028152600401808273ffffffffffffffffffffffffffffffffffffffff1673ffffffffffffffffffffffffffffffffffffffff16815260200191505060206040518083038186803b15801561197a57600080fd5b505afa15801561198e573d6000803e3d6000fd5b505050506040513d60208110156119a457600080fd5b8101908080519060200190929190505050905060006119ed886119e78a3073ffffffffffffffffffffffffffffffffffffffff163161388490919063ffffffff16565b8461270c565b9050868110156119fc57600080fd5b600660009054906101000a900473ffffffffffffffffffffffffffffffffffffffff1673ffffffffffffffffffffffffffffffffffffffff1663a9059cbb85836040518363ffffffff167c0100000000000000000000000000000000000000000000000000000000028152600401808373ffffffffffffffffffffffffffffffffffffffff1673ffffffffffffffffffffffffffffffffffffffff16815260200182815260200192505050602060405180830381600087803b158015611ac157600080fd5b505af1158015611ad5573d6000803e3d6000fd5b505050506040513d6020811015611aeb57600080fd5b8101908080519060200190929190505050611b0557600080fd5b80888673ffffffffffffffffffffffffffffffffffffffff167fcd60aa75dea3072fbc07ae6d7d856b5dc5f4eee88854f5b4abf7b680ef8bc50f60405160405180910390a4809250505095945050505050565b60003073ffffffffffffffffffffffffffffffffffffffff168273ffffffffffffffffffffffffffffffffffffffff1614158015611bc35750600073ffffffffffffffffffffffffffffffffffffffff168273ffffffffffffffffffffffffffffffffffffffff1614155b611bcc57600080fd5b611bd9858585338661390d565b9050949350505050565b60038054600181600116156101000203166002900480601f016020809104026020016040519081016040528092919081815260200182805460018160011615610100020316600290048015611c795780601f10611c4e57610100808354040283529160200191611c79565b820191906000526020600020905b815481529060010190602001808311611c5c57829003601f168201915b505050505081565b6000611c8e338484613c3e565b6001905092915050565b60003073ffffffffffffffffffffffffffffffffffffffff168273ffffffffffffffffffffffffffffffffffffffff1614158015611d035750600073ffffffffffffffffffffffffffffffffffffffff168273ffffffffffffffffffffffffffffffffffffffff1614155b611d0c57600080fd5b611d198585853386613d9d565b9050949350505050565b6000600254905090565b60003073ffffffffffffffffffffffffffffffffffffffff168273ffffffffffffffffffffffffffffffffffffffff1614158015611d985750600073ffffffffffffffffffffffffffffffffffffffff168273ffffffffffffffffffffffffffffffffffffffff1614155b611da157600080fd5b611dae3485853386611896565b90509392505050565b6000611dc48484846140bc565b600190509392505050565b60055481565b6000611e703384611e6b85600160003373ffffffffffffffffffffffffffffffffffffffff1673ffffffffffffffffffffffffffffffffffffffff16815260200190815260200160002060008973ffffffffffffffffffffffffffffffffffffffff1673ffffffffffffffffffffffffffffffffffffffff1681526020019081526020016000205461428690919063ffffffff16565b613c3e565b6001905092915050565b600073ffffffffffffffffffffffffffffffffffffffff168273ffffffffffffffffffffffffffffffffffffffff161415611eb457600080fd5b611ec98160025461428690919063ffffffff16565b600281905550611f20816000808573ffffffffffffffffffffffffffffffffffffffff1673ffffffffffffffffffffffffffffffffffffffff1681526020019081526020016000205461428690919063ffffffff16565b6000808473ffffffffffffffffffffffffffffffffffffffff1673ffffffffffffffffffffffffffffffffffffffff168152602001908152602001600020819055508173ffffffffffffffffffffffffffffffffffffffff16600073ffffffffffffffffffffffffffffffffffffffff167fddf252ad1be2c89b69c2b068fc378daa952ba7f163c4a11628f55a4df523b3ef836040518082815260200191505060405180910390a35050565b60008060025490506000811115612440576000612009343073ffffffffffffffffffffffffffffffffffffffff163161388490919063ffffffff16565b90506000600660009054906101000a900473ffffffffffffffffffffffffffffffffffffffff1673ffffffffffffffffffffffffffffffffffffffff166370a08231306040518263ffffffff167c0100000000000000000000000000000000000000000000000000000000028152600401808273ffffffffffffffffffffffffffffffffffffffff1673ffffffffffffffffffffffffffffffffffffffff16815260200191505060206040518083038186803b1580156120c857600080fd5b505afa1580156120dc573d6000803e3d6000fd5b505050506040513d60208110156120f257600080fd5b810190808051906020019092919050505090506000612136600184612120853461430e90919063ffffffff16565b8161212757fe5b0461428690919063ffffffff16565b905060008361214e863461430e90919063ffffffff16565b8161215557fe5b0490506121a9816000803373ffffffffffffffffffffffffffffffffffffffff1673ffffffffffffffffffffffffffffffffffffffff1681526020019081526020016000205461428690919063ffffffff16565b6000803373ffffffffffffffffffffffffffffffffffffffff1673ffffffffffffffffffffffffffffffffffffffff168152602001908152602001600020819055506121fe818661428690919063ffffffff16565b600281905550600660009054906101000a900473ffffffffffffffffffffffffffffffffffffffff1673ffffffffffffffffffffffffffffffffffffffff166323b872dd3330856040518463ffffffff167c0100000000000000000000000000000000000000000000000000000000028152600401808473ffffffffffffffffffffffffffffffffffffffff1673ffffffffffffffffffffffffffffffffffffffff1681526020018373ffffffffffffffffffffffffffffffffffffffff1673ffffffffffffffffffffffffffffffffffffffff1681526020018281526020019350505050602060405180830381600087803b1580156122fd57600080fd5b505af1158015612311573d6000803e3d6000fd5b505050506040513d602081101561232757600080fd5b810190808051906020019092919050505061234157600080fd5b7f426d9cc5b333c34d51d812de39be44790fc9815945379bd5bed56338e9dc165c858a8660405180848152602001838152602001828152602001935050505060405180910390a181343373ffffffffffffffffffffffffffffffffffffffff167f06239653922ac7bea6aa2b19dc486b9361821d37712eb796adfd38d81de278ca60405160405180910390a43373ffffffffffffffffffffffffffffffffffffffff16600073ffffffffffffffffffffffffffffffffffffffff167fddf252ad1be2c89b69c2b068fc378daa952ba7f163c4a11628f55a4df523b3ef836040518082815260200191505060405180910390a3809550505050505061269a565b600084905060003073ffffffffffffffffffffffffffffffffffffffff1631905080600281905550806000803373ffffffffffffffffffffffffffffffffffffffff1673ffffffffffffffffffffffffffffffffffffffff16815260200190815260200160002081905550600660009054906101000a900473ffffffffffffffffffffffffffffffffffffffff1673ffffffffffffffffffffffffffffffffffffffff166323b872dd3330856040518463ffffffff167c0100000000000000000000000000000000000000000000000000000000028152600401808473ffffffffffffffffffffffffffffffffffffffff1673ffffffffffffffffffffffffffffffffffffffff1681526020018373ffffffffffffffffffffffffffffffffffffffff1673ffffffffffffffffffffffffffffffffffffffff1681526020018281526020019350505050602060405180830381600087803b1580156125a457600080fd5b505af11580156125b8573d6000803e3d6000fd5b505050506040513d60208110156125ce57600080fd5b81019080805190602001909291905050506125e857600080fd5b81343373ffffffffffffffffffffffffffffffffffffffff167f06239653922ac7bea6aa2b19dc486b9361821d37712eb796adfd38d81de278ca60405160405180910390a43373ffffffffffffffffffffffffffffffffffffffff16600073ffffffffffffffffffffffffffffffffffffffff167fddf252ad1be2c89b69c2b068fc378daa952ba7f163c4a11628f55a4df523b3ef836040518082815260200191505060405180910390a38093505050505b9392505050565b60008060008373ffffffffffffffffffffffffffffffffffffffff1673ffffffffffffffffffffffffffffffffffffffff168152602001908152602001600020549050919050565b6000808290506126fe89898989338a876143b1565b915050979650505050505050565b6000808311801561271d5750600082115b61278f576040517f08c379a000000000000000000000000000000000000000000000000000000000815260040180806020018281038252600d8152602001807f494e56414c49445f56414c55450000000000000000000000000000000000000081525060200191505060405180910390fd5b60006127a66103e58661430e90919063ffffffff16565b905060006127bd848361430e90919063ffffffff16565b905060006127e8836127da6103e88961430e90919063ffffffff16565b61428690919063ffffffff16565b90508082816127f357fe5b0493505050509392505050565b600080821161280e57600080fd5b6000600660009054906101000a900473ffffffffffffffffffffffffffffffffffffffff1673ffffffffffffffffffffffffffffffffffffffff166370a08231306040518263ffffffff167c0100000000000000000000000000000000000000000000000000000000028152600401808273ffffffffffffffffffffffffffffffffffffffff1673ffffffffffffffffffffffffffffffffffffffff16815260200191505060206040518083038186803b1580156128cb57600080fd5b505afa1580156128df573d6000803e3d6000fd5b505050506040513d60208110156128f557600080fd5b81019080805190602001909291905050509050600061292c84833073ffffffffffffffffffffffffffffffffffffffff163161270c565b90508092505050919050565b60048054600181600116156101000203166002900480601f0160208091040260200160405190810160405280929190818152602001828054600181600116156101000203166002900480156129ce5780601f106129a3576101008083540402835291602001916129ce565b820191906000526020600020905b8154815290600101906020018083116129b157829003601f168201915b505050505081565b6000600760009054906101000a900473ffffffffffffffffffffffffffffffffffffffff16905090565b60003073ffffffffffffffffffffffffffffffffffffffff168273ffffffffffffffffffffffffffffffffffffffff1614158015612a6b5750600073ffffffffffffffffffffffffffffffffffffffff168273ffffffffffffffffffffffffffffffffffffffff1614155b612a7457600080fd5b612a818434853386614807565b90509392505050565b6000808211612a9857600080fd5b6000600660009054906101000a900473ffffffffffffffffffffffffffffffffffffffff1673ffffffffffffffffffffffffffffffffffffffff166370a08231306040518263ffffffff167c0100000000000000000000000000000000000000000000000000000000028152600401808273ffffffffffffffffffffffffffffffffffffffff1673ffffffffffffffffffffffffffffffffffffffff16815260200191505060206040518083038186803b158015612b5557600080fd5b505afa158015612b69573d6000803e3d6000fd5b505050506040513d6020811015612b7f57600080fd5b81019080805190602001909291905050509050612bb4833073ffffffffffffffffffffffffffffffffffffffff16318361270c565b915050919050565b60003073ffffffffffffffffffffffffffffffffffffffff168373ffffffffffffffffffffffffffffffffffffffff161415612bf757600080fd5b612c0687878787338888614b25565b90509695505050505050565b600080829050612c2788888888333387614b25565b9150509695505050505050565b6000612c43848484333361390d565b90509392505050565b6000612c5b8484843333613d9d565b90509392505050565b6000612c738334843333614807565b905092915050565b6000600660009054906101000a900473ffffffffffffffffffffffffffffffffffffffff16905090565b6000612d403384612d3b85600160003373ffffffffffffffffffffffffffffffffffffffff1673ffffffffffffffffffffffffffffffffffffffff16815260200190815260200160002060008973ffffffffffffffffffffffffffffffffffffffff1673ffffffffffffffffffffffffffffffffffffffff1681526020019081526020016000205461388490919063ffffffff16565b613c3e565b6001905092915050565b6000808211612d5857600080fd5b6000600660009054906101000a900473ffffffffffffffffffffffffffffffffffffffff1673ffffffffffffffffffffffffffffffffffffffff166370a08231306040518263ffffffff167c0100000000000000000000000000000000000000000000000000000000028152600401808273ffffffffffffffffffffffffffffffffffffffff1673ffffffffffffffffffffffffffffffffffffffff16815260200191505060206040518083038186803b158015612e1557600080fd5b505afa158015612e29573d6000803e3d6000fd5b505050506040513d6020811015612e3f57600080fd5b810190808051906020019092919050505090506000612e76843073ffffffffffffffffffffffffffffffffffffffff1631846137ec565b90508092505050919050565b6000612e8f3384846140bc565b6001905092915050565b6000612eaa868686863333886143b1565b905095945050505050565b6000612ec43484843333611896565b905092915050565b600080829050612ee189898989338a87614b25565b915050979650505050505050565b600073ffffffffffffffffffffffffffffffffffffffff16600760009054906101000a900473ffffffffffffffffffffffffffffffffffffffff1673ffffffffffffffffffffffffffffffffffffffff16148015612f9b5750600073ffffffffffffffffffffffffffffffffffffffff16600660009054906101000a900473ffffffffffffffffffffffffffffffffffffffff1673ffffffffffffffffffffffffffffffffffffffff16145b8015612fd45750600073ffffffffffffffffffffffffffffffffffffffff168173ffffffffffffffffffffffffffffffffffffffff1614155b613046576040517f08c379a000000000000000000000000000000000000000000000000000000000815260040180806020018281038252600f8152602001807f494e56414c49445f41444452455353000000000000000000000000000000000081525060200191505060405180910390fd5b33600760006101000a81548173ffffffffffffffffffffffffffffffffffffffff021916908373ffffffffffffffffffffffffffffffffffffffff16021790555080600660006101000a81548173ffffffffffffffffffffffffffffffffffffffff021916908373ffffffffffffffffffffffffffffffffffffffff16021790555082600390805190602001906130de929190615022565b5083600490805190602001906130f5929190615022565b508160ff1660058190555050505050565b6000600160008473ffffffffffffffffffffffffffffffffffffffff1673ffffffffffffffffffffffffffffffffffffffff16815260200190815260200160002060008373ffffffffffffffffffffffffffffffffffffffff1673ffffffffffffffffffffffffffffffffffffffff16815260200190815260200160002054905092915050565b6000808290506131a2888888883333876143b1565b9150509695505050505050565b60006131c086868686333388614b25565b905095945050505050565b60003073ffffffffffffffffffffffffffffffffffffffff168373ffffffffffffffffffffffffffffffffffffffff16141561320657600080fd5b613215878787873388886143b1565b90509695505050505050565b600080821161322f57600080fd5b6000600660009054906101000a900473ffffffffffffffffffffffffffffffffffffffff1673ffffffffffffffffffffffffffffffffffffffff166370a08231306040518263ffffffff167c0100000000000000000000000000000000000000000000000000000000028152600401808273ffffffffffffffffffffffffffffffffffffffff1673ffffffffffffffffffffffffffffffffffffffff16815260200191505060206040518083038186803b1580156132ec57600080fd5b505afa158015613300573d6000803e3d6000fd5b505050506040513d602081101561331657600080fd5b8101908080519060200190929190505050905061334b83823073ffffffffffffffffffffffffffffffffffffffff16316137ec565b915050919050565b60008060008611801561336557504283115b80156133715750600085115b801561337d5750600084115b61338657600080fd5b600060025490506000811161339a57600080fd5b6000600660009054906101000a900473ffffffffffffffffffffffffffffffffffffffff1673ffffffffffffffffffffffffffffffffffffffff166370a08231306040518263ffffffff167c0100000000000000000000000000000000000000000000000000000000028152600401808273ffffffffffffffffffffffffffffffffffffffff1673ffffffffffffffffffffffffffffffffffffffff16815260200191505060206040518083038186803b15801561345757600080fd5b505afa15801561346b573d6000803e3d6000fd5b505050506040513d602081101561348157600080fd5b810190808051906020019092919050505090506000826134c13073ffffffffffffffffffffffffffffffffffffffff16318b61430e90919063ffffffff16565b816134c857fe5b0490506000836134e1848c61430e90919063ffffffff16565b816134e857fe5b0490507f426d9cc5b333c34d51d812de39be44790fc9815945379bd5bed56338e9dc165c84828460405180848152602001838152602001828152602001935050505060405180910390a16135838a6000803373ffffffffffffffffffffffffffffffffffffffff1673ffffffffffffffffffffffffffffffffffffffff1681526020019081526020016000205461388490919063ffffffff16565b6000803373ffffffffffffffffffffffffffffffffffffffff1673ffffffffffffffffffffffffffffffffffffffff168152602001908152602001600020819055506135d88a8561388490919063ffffffff16565b6002819055503373ffffffffffffffffffffffffffffffffffffffff166108fc839081150290604051600060405180830381858888f19350505050158015613624573d6000803e3d6000fd5b50600660009054906101000a900473ffffffffffffffffffffffffffffffffffffffff1673ffffffffffffffffffffffffffffffffffffffff1663a9059cbb33836040518363ffffffff167c0100000000000000000000000000000000000000000000000000000000028152600401808373ffffffffffffffffffffffffffffffffffffffff1673ffffffffffffffffffffffffffffffffffffffff16815260200182815260200192505050602060405180830381600087803b1580156136ea57600080fd5b505af11580156136fe573d6000803e3d6000fd5b505050506040513d602081101561371457600080fd5b810190808051906020019092919050505061372e57600080fd5b80823373ffffffffffffffffffffffffffffffffffffffff167f0fbf06c058b90cb038a618f8c2acbf6145f8b3570fd1fa56abb8f0f3f05b36e860405160405180910390a4600073ffffffffffffffffffffffffffffffffffffffff163373ffffffffffffffffffffffffffffffffffffffff167fddf252ad1be2c89b69c2b068fc378daa952ba7f163c4a11628f55a4df523b3ef8c6040518082815260200191505060405180910390a38181955095505050505094509492505050565b600080831180156137fd5750600082115b61380657600080fd5b600061382f6103e8613821878761430e90919063ffffffff16565b61430e90919063ffffffff16565b9050600061385a6103e561384c888761388490919063ffffffff16565b61430e90919063ffffffff16565b9050613879600182848161386a57fe5b0461428690919063ffffffff16565b925050509392505050565b6000828211156138fc576040517f08c379a00000000000000000000000000000000000000000000000000000000081526004018080602001828103825260178152602001807f536166654d617468237375623a20554e444552464c4f5700000000000000000081525060200191505060405180910390fd5b600082840390508091505092915050565b600042841015801561391f5750600086115b801561392b5750600085115b61393457600080fd5b6000600660009054906101000a900473ffffffffffffffffffffffffffffffffffffffff1673ffffffffffffffffffffffffffffffffffffffff166370a08231306040518263ffffffff167c0100000000000000000000000000000000000000000000000000000000028152600401808273ffffffffffffffffffffffffffffffffffffffff1673ffffffffffffffffffffffffffffffffffffffff16815260200191505060206040518083038186803b1580156139f157600080fd5b505afa158015613a05573d6000803e3d6000fd5b505050506040513d6020811015613a1b57600080fd5b810190808051906020019092919050505090506000613a5288833073ffffffffffffffffffffffffffffffffffffffff163161270c565b9050600081905087811015613a6657600080fd5b8473ffffffffffffffffffffffffffffffffffffffff166108fc829081150290604051600060405180830381858888f19350505050158015613aac573d6000803e3d6000fd5b50600660009054906101000a900473ffffffffffffffffffffffffffffffffffffffff1673ffffffffffffffffffffffffffffffffffffffff166323b872dd87308c6040518463ffffffff167c0100000000000000000000000000000000000000000000000000000000028152600401808473ffffffffffffffffffffffffffffffffffffffff1673ffffffffffffffffffffffffffffffffffffffff1681526020018373ffffffffffffffffffffffffffffffffffffffff1673ffffffffffffffffffffffffffffffffffffffff1681526020018281526020019350505050602060405180830381600087803b158015613ba657600080fd5b505af1158015613bba573d6000803e3d6000fd5b505050506040513d6020811015613bd057600080fd5b8101908080519060200190929190505050613bea57600080fd5b80898773ffffffffffffffffffffffffffffffffffffffff167fdad9ec5c9b9c82bf6927bf0b64293dcdd1f82c92793aef3c5f26d7b93a4a530660405160405180910390a480935050505095945050505050565b600073ffffffffffffffffffffffffffffffffffffffff168273ffffffffffffffffffffffffffffffffffffffff161415613c7857600080fd5b600073ffffffffffffffffffffffffffffffffffffffff168373ffffffffffffffffffffffffffffffffffffffff161415613cb257600080fd5b80600160008573ffffffffffffffffffffffffffffffffffffffff1673ffffffffffffffffffffffffffffffffffffffff16815260200190815260200160002060008473ffffffffffffffffffffffffffffffffffffffff1673ffffffffffffffffffffffffffffffffffffffff168152602001908152602001600020819055508173ffffffffffffffffffffffffffffffffffffffff168373ffffffffffffffffffffffffffffffffffffffff167f8c5be1e5ebec7d5bd14f71427d1e84f3dd0314c0f7b2291e5b200ac8c7c3b925836040518082815260200191505060405180910390a3505050565b6000428410158015613daf5750600086115b613db857600080fd5b6000600660009054906101000a900473ffffffffffffffffffffffffffffffffffffffff1673ffffffffffffffffffffffffffffffffffffffff166370a08231306040518263ffffffff167c0100000000000000000000000000000000000000000000000000000000028152600401808273ffffffffffffffffffffffffffffffffffffffff1673ffffffffffffffffffffffffffffffffffffffff16815260200191505060206040518083038186803b158015613e7557600080fd5b505afa158015613e89573d6000803e3d6000fd5b505050506040513d6020811015613e9f57600080fd5b810190808051906020019092919050505090506000613ed688833073ffffffffffffffffffffffffffffffffffffffff16316137ec565b905080871015613ee557600080fd5b8373ffffffffffffffffffffffffffffffffffffffff166108fc899081150290604051600060405180830381858888f19350505050158015613f2b573d6000803e3d6000fd5b50600660009054906101000a900473ffffffffffffffffffffffffffffffffffffffff1673ffffffffffffffffffffffffffffffffffffffff166323b872dd8630846040518463ffffffff167c0100000000000000000000000000000000000000000000000000000000028152600401808473ffffffffffffffffffffffffffffffffffffffff1673ffffffffffffffffffffffffffffffffffffffff1681526020018373ffffffffffffffffffffffffffffffffffffffff1673ffffffffffffffffffffffffffffffffffffffff1681526020018281526020019350505050602060405180830381600087803b15801561402557600080fd5b505af1158015614039573d6000803e3d6000fd5b505050506040513d602081101561404f57600080fd5b810190808051906020019092919050505061406957600080fd5b87818673ffffffffffffffffffffffffffffffffffffffff167fdad9ec5c9b9c82bf6927bf0b64293dcdd1f82c92793aef3c5f26d7b93a4a530660405160405180910390a4809250505095945050505050565b600073ffffffffffffffffffffffffffffffffffffffff168273ffffffffffffffffffffffffffffffffffffffff1614156140f657600080fd5b614147816000808673ffffffffffffffffffffffffffffffffffffffff1673ffffffffffffffffffffffffffffffffffffffff1681526020019081526020016000205461388490919063ffffffff16565b6000808573ffffffffffffffffffffffffffffffffffffffff1673ffffffffffffffffffffffffffffffffffffffff168152602001908152602001600020819055506141da816000808573ffffffffffffffffffffffffffffffffffffffff1673ffffffffffffffffffffffffffffffffffffffff1681526020019081526020016000205461428690919063ffffffff16565b6000808473ffffffffffffffffffffffffffffffffffffffff1673ffffffffffffffffffffffffffffffffffffffff168152602001908152602001600020819055508173ffffffffffffffffffffffffffffffffffffffff168373ffffffffffffffffffffffffffffffffffffffff167fddf252ad1be2c89b69c2b068fc378daa952ba7f163c4a11628f55a4df523b3ef836040518082815260200191505060405180910390a3505050565b600080828401905083811015614304576040517f08c379a00000000000000000000000000000000000000000000000000000000081526004018080602001828103825260168152602001807f536166654d617468236164643a204f564552464c4f570000000000000000000081525060200191505060405180910390fd5b8091505092915050565b60008083141561432157600090506143ab565b600082840290508284828161433257fe5b04146143a6576040517f08c379a00000000000000000000000000000000000000000000000000000000081526004018080602001828103825260168152602001807f536166654d617468236d756c3a204f564552464c4f570000000000000000000081525060200191505060405180910390fd5b809150505b92915050565b60004285101580156143c35750600088115b80156143cf5750600087115b80156143db5750600086115b6143e457600080fd5b3073ffffffffffffffffffffffffffffffffffffffff168273ffffffffffffffffffffffffffffffffffffffff161415801561444d5750600073ffffffffffffffffffffffffffffffffffffffff168273ffffffffffffffffffffffffffffffffffffffff1614155b61445657600080fd5b6000600660009054906101000a900473ffffffffffffffffffffffffffffffffffffffff1673ffffffffffffffffffffffffffffffffffffffff166370a08231306040518263ffffffff167c0100000000000000000000000000000000000000000000000000000000028152600401808273ffffffffffffffffffffffffffffffffffffffff1673ffffffffffffffffffffffffffffffffffffffff16815260200191505060206040518083038186803b15801561451357600080fd5b505afa158015614527573d6000803e3d6000fd5b505050506040513d602081101561453d57600080fd5b8101908080519060200190929190505050905060006145748a833073ffffffffffffffffffffffffffffffffffffffff163161270c565b905060008190508881101561458857600080fd5b600660009054906101000a900473ffffffffffffffffffffffffffffffffffffffff1673ffffffffffffffffffffffffffffffffffffffff166323b872dd88308e6040518463ffffffff167c0100000000000000000000000000000000000000000000000000000000028152600401808473ffffffffffffffffffffffffffffffffffffffff1673ffffffffffffffffffffffffffffffffffffffff1681526020018373ffffffffffffffffffffffffffffffffffffffff1673ffffffffffffffffffffffffffffffffffffffff1681526020018281526020019350505050602060405180830381600087803b15801561468157600080fd5b505af1158015614695573d6000803e3d6000fd5b505050506040513d60208110156146ab57600080fd5b81019080805190602001909291905050506146c557600080fd5b60008573ffffffffffffffffffffffffffffffffffffffff1663221fb6ab838d8c8b6040518563ffffffff167c0100000000000000000000000000000000000000000000000000000000028152600401808481526020018381526020018273ffffffffffffffffffffffffffffffffffffffff1673ffffffffffffffffffffffffffffffffffffffff16815260200193505050506020604051808303818588803b15801561477257600080fd5b505af1158015614786573d6000803e3d6000fd5b50505050506040513d602081101561479d57600080fd5b81019080805190602001909291905050509050818c8973ffffffffffffffffffffffffffffffffffffffff167fdad9ec5c9b9c82bf6927bf0b64293dcdd1f82c92793aef3c5f26d7b93a4a530660405160405180910390a480945050505050979650505050505050565b60004284101580156148195750600086115b80156148255750600085115b61482e57600080fd5b6000600660009054906101000a900473ffffffffffffffffffffffffffffffffffffffff1673ffffffffffffffffffffffffffffffffffffffff166370a08231306040518263ffffffff167c0100000000000000000000000000000000000000000000000000000000028152600401808273ffffffffffffffffffffffffffffffffffffffff1673ffffffffffffffffffffffffffffffffffffffff16815260200191505060206040518083038186803b1580156148eb57600080fd5b505afa1580156148ff573d6000803e3d6000fd5b505050506040513d602081101561491557600080fd5b81019080805190602001909291905050509050600061495e88614958893073ffffffffffffffffffffffffffffffffffffffff163161388490919063ffffffff16565b846137ec565b90506000614975828961388490919063ffffffff16565b905060008111156149c8578573ffffffffffffffffffffffffffffffffffffffff166108fc829081150290604051600060405180830381858888f193505050501580156149c6573d6000803e3d6000fd5b505b600660009054906101000a900473ffffffffffffffffffffffffffffffffffffffff1673ffffffffffffffffffffffffffffffffffffffff1663a9059cbb868b6040518363ffffffff167c0100000000000000000000000000000000000000000000000000000000028152600401808373ffffffffffffffffffffffffffffffffffffffff1673ffffffffffffffffffffffffffffffffffffffff16815260200182815260200192505050602060405180830381600087803b158015614a8d57600080fd5b505af1158015614aa1573d6000803e3d6000fd5b505050506040513d6020811015614ab757600080fd5b8101908080519060200190929190505050614ad157600080fd5b88828773ffffffffffffffffffffffffffffffffffffffff167fcd60aa75dea3072fbc07ae6d7d856b5dc5f4eee88854f5b4abf7b680ef8bc50f60405160405180910390a481935050505095945050505050565b6000428510158015614b435750600088118015614b425750600086115b5b614b4c57600080fd5b3073ffffffffffffffffffffffffffffffffffffffff168273ffffffffffffffffffffffffffffffffffffffff1614158015614bb55750600073ffffffffffffffffffffffffffffffffffffffff168273ffffffffffffffffffffffffffffffffffffffff1614155b614bbe57600080fd5b60008273ffffffffffffffffffffffffffffffffffffffff1663a7c6d9d98a6040518263ffffffff167c01000000000000000000000000000000000000000000000000000000000281526004018082815260200191505060206040518083038186803b158015614c2d57600080fd5b505afa158015614c41573d6000803e3d6000fd5b505050506040513d6020811015614c5757600080fd5b810190808051906020019092919050505090506000600660009054906101000a900473ffffffffffffffffffffffffffffffffffffffff1673ffffffffffffffffffffffffffffffffffffffff166370a08231306040518263ffffffff167c0100000000000000000000000000000000000000000000000000000000028152600401808273ffffffffffffffffffffffffffffffffffffffff1673ffffffffffffffffffffffffffffffffffffffff16815260200191505060206040518083038186803b158015614d2757600080fd5b505afa158015614d3b573d6000803e3d6000fd5b505050506040513d6020811015614d5157600080fd5b810190808051906020019092919050505090506000614d8883833073ffffffffffffffffffffffffffffffffffffffff16316137ec565b9050808a10158015614d9a5750828910155b614da357600080fd5b600660009054906101000a900473ffffffffffffffffffffffffffffffffffffffff1673ffffffffffffffffffffffffffffffffffffffff166323b872dd8830846040518463ffffffff167c0100000000000000000000000000000000000000000000000000000000028152600401808473ffffffffffffffffffffffffffffffffffffffff1673ffffffffffffffffffffffffffffffffffffffff1681526020018373ffffffffffffffffffffffffffffffffffffffff1673ffffffffffffffffffffffffffffffffffffffff1681526020018281526020019350505050602060405180830381600087803b158015614e9c57600080fd5b505af1158015614eb0573d6000803e3d6000fd5b505050506040513d6020811015614ec657600080fd5b8101908080519060200190929190505050614ee057600080fd5b60008573ffffffffffffffffffffffffffffffffffffffff166396a3a16f858e8c8b6040518563ffffffff167c0100000000000000000000000000000000000000000000000000000000028152600401808481526020018381526020018273ffffffffffffffffffffffffffffffffffffffff1673ffffffffffffffffffffffffffffffffffffffff16815260200193505050506020604051808303818588803b158015614f8d57600080fd5b505af1158015614fa1573d6000803e3d6000fd5b50505050506040513d6020811015614fb857600080fd5b8101908080519060200190929190505050905083828973ffffffffffffffffffffffffffffffffffffffff167fdad9ec5c9b9c82bf6927bf0b64293dcdd1f82c92793aef3c5f26d7b93a4a530660405160405180910390a481945050505050979650505050505050565b828054600181600116156101000203166002900490600052602060002090601f016020900481019282601f1061506357805160ff1916838001178555615091565b82800160010185558215615091579182015b82811115615090578251825591602001919060010190615075565b5b50905061509e91906150a2565b5090565b6150c491905b808211156150c05760008160009055506001016150a8565b5090565b9056fea165627a7a723058209f27bd9377a23cfe7ee52d8e659b76f449305d095539017448898a97110d77850029a165627a7a72305820ede2163637425418534553365630c518b6bdc49fb7e614d0943f4401e28e697f0029",
  "source": "pragma solidity ^0.5.0;\n\nimport \"./UniswapExchange.sol\";\nimport \"../interfaces/IUniswapExchange.sol\";\n\n\ncontract UniswapFactory {\n\n  /***********************************|\n  |       Events And Variables        |\n  |__________________________________*/\n\n  event NewExchange(address indexed token, address indexed exchange);\n\n  address public exchangeTemplate;\n  uint256 public tokenCount;\n  mapping (address => address) internal token_to_exchange;\n  mapping (address => address) internal exchange_to_token;\n  mapping (uint256 => address) internal id_to_token;\n\n  /***********************************|\n  |         Factory Functions         |\n  |__________________________________*/\n\n  function initializeFactory(address template) public {\n    require(exchangeTemplate == address(0));\n    require(template != address(0));\n    exchangeTemplate = template;\n  }\n  \n  function createExchange(string memory _name, string memory _symbol, uint8 _decimals, address token) public returns (address) {\n    require(token != address(0));\n    require(exchangeTemplate != address(0));\n    require(token_to_exchange[token] == address(0));\n    UniswapExchange exchange = new UniswapExchange();\n    exchange.setup(_name, _symbol, _decimals,  token);\n    token_to_exchange[token] = address(exchange);\n    exchange_to_token[address(exchange)] = token;\n    uint256 token_id = tokenCount + 1;\n    tokenCount = token_id;\n    id_to_token[token_id] = token;\n    emit NewExchange(token, address(exchange));\n    return address(exchange);\n  }\n\n  /***********************************|\n  |         Getter Functions          |\n  |__________________________________*/\n\n  function getExchange(address token) public view returns (address) {\n    return token_to_exchange[token];\n  }\n\n  function getToken(address exchange) public view returns (address) {\n    return exchange_to_token[exchange];\n  }\n\n  function getTokenWithId(uint256 token_id) public view returns (address) {\n    return id_to_token[token_id];\n  }\n\n}\n\n",
  "sourcePath": "/home/binyu/Desktop/Uniswap/uniswap-contracts/contracts/uniswap/UniswapFactory.sol",
  "compiler": {
    "name": "solc",
    "version": "0.5.8+commit.1f148fe1.Emscripten.clang"
  },
  "schemaVersion": "2.0.1",
  "updatedAt": "2020-04-03T00:29:33.647Z"
}